{
  "_format": "hh-sol-artifact-1",
  "contractName": "SupplyGuard",
  "sourceName": "contracts/SupplyGuard.sol",
  "abi": [
    {
      "anonymous": false,
      "inputs": [
        {
          "indexed": false,
          "internalType": "uint256",
          "name": "id",
          "type": "uint256"
        },
        {
          "indexed": false,
          "internalType": "string",
          "name": "title",
          "type": "string"
        },
        {
          "indexed": false,
          "internalType": "uint256",
          "name": "price",
          "type": "uint256"
        }
      ],
      "name": "NFTAdded",
      "type": "event"
    },
    {
      "anonymous": false,
      "inputs": [
        {
          "indexed": false,
          "internalType": "uint256",
          "name": "id",
          "type": "uint256"
        },
        {
          "indexed": false,
          "internalType": "address",
          "name": "owner",
          "type": "address"
        }
      ],
      "name": "NFTMinted",
      "type": "event"
    },
    {
      "inputs": [
        {
          "internalType": "string",
          "name": "title",
          "type": "string"
        },
        {
          "internalType": "string",
          "name": "description",
          "type": "string"
        },
        {
          "internalType": "string",
          "name": "imageUrl",
          "type": "string"
        },
        {
          "internalType": "string",
          "name": "source",
          "type": "string"
        },
        {
          "internalType": "uint256",
          "name": "price",
          "type": "uint256"
        }
      ],
      "name": "addNFT",
      "outputs": [],
      "stateMutability": "nonpayable",
      "type": "function"
    },
    {
      "inputs": [],
      "name": "getAllNFTs",
      "outputs": [
        {
          "components": [
            {
              "internalType": "uint256",
              "name": "id",
              "type": "uint256"
            },
            {
              "internalType": "string",
              "name": "title",
              "type": "string"
            },
            {
              "internalType": "string",
              "name": "description",
              "type": "string"
            },
            {
              "internalType": "string",
              "name": "imageUrl",
              "type": "string"
            },
            {
              "internalType": "string",
              "name": "source",
              "type": "string"
            },
            {
              "internalType": "uint256",
              "name": "price",
              "type": "uint256"
            },
            {
              "internalType": "bool",
              "name": "isMinted",
              "type": "bool"
            }
          ],
          "internalType": "struct SupplyGuard.NFT[]",
          "name": "",
          "type": "tuple[]"
        }
      ],
      "stateMutability": "view",
      "type": "function"
    },
    {
      "inputs": [
        {
          "internalType": "address",
          "name": "user",
          "type": "address"
        }
      ],
      "name": "getMintedNFTsByUser",
      "outputs": [
        {
          "components": [
            {
              "internalType": "uint256",
              "name": "id",
              "type": "uint256"
            },
            {
              "internalType": "string",
              "name": "title",
              "type": "string"
            },
            {
              "internalType": "string",
              "name": "description",
              "type": "string"
            },
            {
              "internalType": "string",
              "name": "imageUrl",
              "type": "string"
            },
            {
              "internalType": "string",
              "name": "source",
              "type": "string"
            },
            {
              "internalType": "uint256",
              "name": "price",
              "type": "uint256"
            },
            {
              "internalType": "bool",
              "name": "isMinted",
              "type": "bool"
            }
          ],
          "internalType": "struct SupplyGuard.NFT[]",
          "name": "",
          "type": "tuple[]"
        }
      ],
      "stateMutability": "view",
      "type": "function"
    },
    {
      "inputs": [],
      "name": "makePayment",
      "outputs": [],
      "stateMutability": "payable",
      "type": "function"
    },
    {
      "inputs": [
        {
          "internalType": "uint256",
          "name": "nftId",
          "type": "uint256"
        }
      ],
      "name": "mintNFT",
      "outputs": [],
      "stateMutability": "payable",
      "type": "function"
    },
    {
      "inputs": [
        {
          "internalType": "uint256",
          "name": "",
          "type": "uint256"
        }
      ],
      "name": "nftOwners",
      "outputs": [
        {
          "internalType": "address",
          "name": "",
          "type": "address"
        }
      ],
      "stateMutability": "view",
      "type": "function"
    },
    {
      "inputs": [
        {
          "internalType": "uint256",
          "name": "",
          "type": "uint256"
        }
      ],
      "name": "nfts",
      "outputs": [
        {
          "internalType": "uint256",
          "name": "id",
          "type": "uint256"
        },
        {
          "internalType": "string",
          "name": "title",
          "type": "string"
        },
        {
          "internalType": "string",
          "name": "description",
          "type": "string"
        },
        {
          "internalType": "string",
          "name": "imageUrl",
          "type": "string"
        },
        {
          "internalType": "string",
          "name": "source",
          "type": "string"
        },
        {
          "internalType": "uint256",
          "name": "price",
          "type": "uint256"
        },
        {
          "internalType": "bool",
          "name": "isMinted",
          "type": "bool"
        }
      ],
      "stateMutability": "view",
      "type": "function"
    },
    {
      "inputs": [
        {
          "internalType": "address payable",
          "name": "recipient",
          "type": "address"
        }
      ],
      "name": "withdraw",
      "outputs": [],
      "stateMutability": "nonpayable",
      "type": "function"
    }
  ],
  "bytecode": "0x60806040526000805534801561001457600080fd5b50611d89806100246000396000f3fe60806040526004361061007b5760003560e01c8063926427441161004e5780639264274414610152578063bbd94c2f1461016e578063d8d79700146101ab578063e0391b09146101b55761007b565b8063265aa621146100805780632fd8ecb8146100c357806351cff8d9146100ec5780637c52882914610115575b600080fd5b34801561008c57600080fd5b506100a760048036038101906100a29190611109565b6101e0565b6040516100ba97969594939291906111f0565b60405180910390f35b3480156100cf57600080fd5b506100ea60048036038101906100e591906113b0565b61044f565b005b3480156100f857600080fd5b50610113600480360381019061010e91906114f9565b610584565b005b34801561012157600080fd5b5061013c60048036038101906101379190611564565b61063d565b604051610149919061176c565b60405180910390f35b61016c60048036038101906101679190611109565b610ad1565b005b34801561017a57600080fd5b5061019560048036038101906101909190611109565b610c91565b6040516101a2919061179d565b60405180910390f35b6101b3610cc4565b005b3480156101c157600080fd5b506101ca610d50565b6040516101d7919061176c565b60405180910390f35b6001602052806000526040600020600091509050806000015490806001018054610209906117e7565b80601f0160208091040260200160405190810160405280929190818152602001828054610235906117e7565b80156102825780601f1061025757610100808354040283529160200191610282565b820191906000526020600020905b81548152906001019060200180831161026557829003601f168201915b505050505090806002018054610297906117e7565b80601f01602080910402602001604051908101604052809291908181526020018280546102c3906117e7565b80156103105780601f106102e557610100808354040283529160200191610310565b820191906000526020600020905b8154815290600101906020018083116102f357829003601f168201915b505050505090806003018054610325906117e7565b80601f0160208091040260200160405190810160405280929190818152602001828054610351906117e7565b801561039e5780601f106103735761010080835404028352916020019161039e565b820191906000526020600020905b81548152906001019060200180831161038157829003601f168201915b5050505050908060040180546103b3906117e7565b80601f01602080910402602001604051908101604052809291908181526020018280546103df906117e7565b801561042c5780601f106104015761010080835404028352916020019161042c565b820191906000526020600020905b81548152906001019060200180831161040f57829003601f168201915b5050505050908060050154908060060160009054906101000a900460ff16905087565b600080600081548092919061046390611847565b9190505590506040518060e0016040528082815260200187815260200186815260200185815260200184815260200183815260200160001515815250600160008381526020019081526020016000206000820151816000015560208201518160010190816104d19190611a3b565b5060408201518160020190816104e79190611a3b565b5060608201518160030190816104fd9190611a3b565b5060808201518160040190816105139190611a3b565b5060a0820151816005015560c08201518160060160006101000a81548160ff0219169083151502179055509050507fbb30b7d5e7538b947de5934d8394b82e2d4888ed02831f393ee53ed40c67724d81878460405161057493929190611b0d565b60405180910390a1505050505050565b600073ffffffffffffffffffffffffffffffffffffffff168173ffffffffffffffffffffffffffffffffffffffff16036105f3576040517f08c379a00000000000000000000000000000000000000000000000000000000081526004016105ea90611b97565b60405180910390fd5b8073ffffffffffffffffffffffffffffffffffffffff166108fc479081150290604051600060405180830381858888f19350505050158015610639573d6000803e3d6000fd5b5050565b60606000805b6000548110156106fc578373ffffffffffffffffffffffffffffffffffffffff166002600083815260200190815260200160002060009054906101000a900473ffffffffffffffffffffffffffffffffffffffff1673ffffffffffffffffffffffffffffffffffffffff161480156106db57506001600082815260200190815260200160002060060160009054906101000a900460ff165b156106ef5781806106eb90611847565b9250505b8080600101915050610643565b5060008167ffffffffffffffff81111561071957610718611285565b5b60405190808252806020026020018201604052801561075257816020015b61073f611080565b8152602001906001900390816107375790505b5090506000805b600054811015610ac5578573ffffffffffffffffffffffffffffffffffffffff166002600083815260200190815260200160002060009054906101000a900473ffffffffffffffffffffffffffffffffffffffff1673ffffffffffffffffffffffffffffffffffffffff161480156107f157506001600082815260200190815260200160002060060160009054906101000a900460ff165b15610ab857600160008281526020019081526020016000206040518060e00160405290816000820154815260200160018201805461082e906117e7565b80601f016020809104026020016040519081016040528092919081815260200182805461085a906117e7565b80156108a75780601f1061087c576101008083540402835291602001916108a7565b820191906000526020600020905b81548152906001019060200180831161088a57829003601f168201915b505050505081526020016002820180546108c0906117e7565b80601f01602080910402602001604051908101604052809291908181526020018280546108ec906117e7565b80156109395780601f1061090e57610100808354040283529160200191610939565b820191906000526020600020905b81548152906001019060200180831161091c57829003601f168201915b50505050508152602001600382018054610952906117e7565b80601f016020809104026020016040519081016040528092919081815260200182805461097e906117e7565b80156109cb5780601f106109a0576101008083540402835291602001916109cb565b820191906000526020600020905b8154815290600101906020018083116109ae57829003601f168201915b505050505081526020016004820180546109e4906117e7565b80601f0160208091040260200160405190810160405280929190818152602001828054610a10906117e7565b8015610a5d5780601f10610a3257610100808354040283529160200191610a5d565b820191906000526020600020905b815481529060010190602001808311610a4057829003601f168201915b50505050508152602001600582015481526020016006820160009054906101000a900460ff161515151581525050838381518110610a9e57610a9d611bb7565b5b60200260200101819052508180610ab490611847565b9250505b8080600101915050610759565b50819350505050919050565b6001600082815260200190815260200160002060060160009054906101000a900460ff1615610b35576040517f08c379a0000000000000000000000000000000000000000000000000000000008152600401610b2c90611c32565b60405180910390fd5b6001600082815260200190815260200160002060050154341015610b8e576040517f08c379a0000000000000000000000000000000000000000000000000000000008152600401610b8590611c9e565b60405180910390fd5b336002600083815260200190815260200160002060006101000a81548173ffffffffffffffffffffffffffffffffffffffff021916908373ffffffffffffffffffffffffffffffffffffffff160217905550600180600083815260200190815260200160002060060160006101000a81548160ff0219169083151502179055503073ffffffffffffffffffffffffffffffffffffffff166108fc349081150290604051600060405180830381858888f19350505050158015610c54573d6000803e3d6000fd5b507f0176f203df400d7bd5f1b1c9ef36c16709bf3b5d9fd35f000a6bae32393f66c38133604051610c86929190611cbe565b60405180910390a150565b60026020528060005260406000206000915054906101000a900473ffffffffffffffffffffffffffffffffffffffff1681565b60003411610d07576040517f08c379a0000000000000000000000000000000000000000000000000000000008152600401610cfe90611d33565b60405180910390fd5b3073ffffffffffffffffffffffffffffffffffffffff166108fc349081150290604051600060405180830381858888f19350505050158015610d4d573d6000803e3d6000fd5b50565b60606000805467ffffffffffffffff811115610d6f57610d6e611285565b5b604051908082528060200260200182016040528015610da857816020015b610d95611080565b815260200190600190039081610d8d5790505b50905060005b60005481101561107857600160008281526020019081526020016000206040518060e001604052908160008201548152602001600182018054610df0906117e7565b80601f0160208091040260200160405190810160405280929190818152602001828054610e1c906117e7565b8015610e695780601f10610e3e57610100808354040283529160200191610e69565b820191906000526020600020905b815481529060010190602001808311610e4c57829003601f168201915b50505050508152602001600282018054610e82906117e7565b80601f0160208091040260200160405190810160405280929190818152602001828054610eae906117e7565b8015610efb5780601f10610ed057610100808354040283529160200191610efb565b820191906000526020600020905b815481529060010190602001808311610ede57829003601f168201915b50505050508152602001600382018054610f14906117e7565b80601f0160208091040260200160405190810160405280929190818152602001828054610f40906117e7565b8015610f8d5780601f10610f6257610100808354040283529160200191610f8d565b820191906000526020600020905b815481529060010190602001808311610f7057829003601f168201915b50505050508152602001600482018054610fa6906117e7565b80601f0160208091040260200160405190810160405280929190818152602001828054610fd2906117e7565b801561101f5780601f10610ff45761010080835404028352916020019161101f565b820191906000526020600020905b81548152906001019060200180831161100257829003601f168201915b50505050508152602001600582015481526020016006820160009054906101000a900460ff1615151515815250508282815181106110605761105f611bb7565b5b60200260200101819052508080600101915050610dae565b508091505090565b6040518060e001604052806000815260200160608152602001606081526020016060815260200160608152602001600081526020016000151581525090565b6000604051905090565b600080fd5b600080fd5b6000819050919050565b6110e6816110d3565b81146110f157600080fd5b50565b600081359050611103816110dd565b92915050565b60006020828403121561111f5761111e6110c9565b5b600061112d848285016110f4565b91505092915050565b61113f816110d3565b82525050565b600081519050919050565b600082825260208201905092915050565b60005b8381101561117f578082015181840152602081019050611164565b60008484015250505050565b6000601f19601f8301169050919050565b60006111a782611145565b6111b18185611150565b93506111c1818560208601611161565b6111ca8161118b565b840191505092915050565b60008115159050919050565b6111ea816111d5565b82525050565b600060e082019050611205600083018a611136565b8181036020830152611217818961119c565b9050818103604083015261122b818861119c565b9050818103606083015261123f818761119c565b90508181036080830152611253818661119c565b905061126260a0830185611136565b61126f60c08301846111e1565b98975050505050505050565b600080fd5b600080fd5b7f4e487b7100000000000000000000000000000000000000000000000000000000600052604160045260246000fd5b6112bd8261118b565b810181811067ffffffffffffffff821117156112dc576112db611285565b5b80604052505050565b60006112ef6110bf565b90506112fb82826112b4565b919050565b600067ffffffffffffffff82111561131b5761131a611285565b5b6113248261118b565b9050602081019050919050565b82818337600083830152505050565b600061135361134e84611300565b6112e5565b90508281526020810184848401111561136f5761136e611280565b5b61137a848285611331565b509392505050565b600082601f8301126113975761139661127b565b5b81356113a7848260208601611340565b91505092915050565b600080600080600060a086880312156113cc576113cb6110c9565b5b600086013567ffffffffffffffff8111156113ea576113e96110ce565b5b6113f688828901611382565b955050602086013567ffffffffffffffff811115611417576114166110ce565b5b61142388828901611382565b945050604086013567ffffffffffffffff811115611444576114436110ce565b5b61145088828901611382565b935050606086013567ffffffffffffffff811115611471576114706110ce565b5b61147d88828901611382565b925050608061148e888289016110f4565b9150509295509295909350565b600073ffffffffffffffffffffffffffffffffffffffff82169050919050565b60006114c68261149b565b9050919050565b6114d6816114bb565b81146114e157600080fd5b50565b6000813590506114f3816114cd565b92915050565b60006020828403121561150f5761150e6110c9565b5b600061151d848285016114e4565b91505092915050565b60006115318261149b565b9050919050565b61154181611526565b811461154c57600080fd5b50565b60008135905061155e81611538565b92915050565b60006020828403121561157a576115796110c9565b5b60006115888482850161154f565b91505092915050565b600081519050919050565b600082825260208201905092915050565b6000819050602082019050919050565b6115c6816110d3565b82525050565b600082825260208201905092915050565b60006115e882611145565b6115f281856115cc565b9350611602818560208601611161565b61160b8161118b565b840191505092915050565b61161f816111d5565b82525050565b600060e08301600083015161163d60008601826115bd565b506020830151848203602086015261165582826115dd565b9150506040830151848203604086015261166f82826115dd565b9150506060830151848203606086015261168982826115dd565b915050608083015184820360808601526116a382826115dd565b91505060a08301516116b860a08601826115bd565b5060c08301516116cb60c0860182611616565b508091505092915050565b60006116e28383611625565b905092915050565b6000602082019050919050565b600061170282611591565b61170c818561159c565b93508360208202850161171e856115ad565b8060005b8581101561175a578484038952815161173b85826116d6565b9450611746836116ea565b925060208a01995050600181019050611722565b50829750879550505050505092915050565b6000602082019050818103600083015261178681846116f7565b905092915050565b61179781611526565b82525050565b60006020820190506117b2600083018461178e565b92915050565b7f4e487b7100000000000000000000000000000000000000000000000000000000600052602260045260246000fd5b600060028204905060018216806117ff57607f821691505b602082108103611812576118116117b8565b5b50919050565b7f4e487b7100000000000000000000000000000000000000000000000000000000600052601160045260246000fd5b6000611852826110d3565b91507fffffffffffffffffffffffffffffffffffffffffffffffffffffffffffffffff820361188457611883611818565b5b600182019050919050565b60008190508160005260206000209050919050565b60006020601f8301049050919050565b600082821b905092915050565b6000600883026118f17fffffffffffffffffffffffffffffffffffffffffffffffffffffffffffffffff826118b4565b6118fb86836118b4565b95508019841693508086168417925050509392505050565b6000819050919050565b600061193861193361192e846110d3565b611913565b6110d3565b9050919050565b6000819050919050565b6119528361191d565b61196661195e8261193f565b8484546118c1565b825550505050565b600090565b61197b61196e565b611986818484611949565b505050565b5b818110156119aa5761199f600082611973565b60018101905061198c565b5050565b601f8211156119ef576119c08161188f565b6119c9846118a4565b810160208510156119d8578190505b6119ec6119e4856118a4565b83018261198b565b50505b505050565b600082821c905092915050565b6000611a12600019846008026119f4565b1980831691505092915050565b6000611a2b8383611a01565b9150826002028217905092915050565b611a4482611145565b67ffffffffffffffff811115611a5d57611a5c611285565b5b611a6782546117e7565b611a728282856119ae565b600060209050601f831160018114611aa55760008415611a93578287015190505b611a9d8582611a1f565b865550611b05565b601f198416611ab38661188f565b60005b82811015611adb57848901518255600182019150602085019450602081019050611ab6565b86831015611af85784890151611af4601f891682611a01565b8355505b6001600288020188555050505b505050505050565b6000606082019050611b226000830186611136565b8181036020830152611b34818561119c565b9050611b436040830184611136565b949350505050565b7f496e76616c696420616464726573730000000000000000000000000000000000600082015250565b6000611b81600f83611150565b9150611b8c82611b4b565b602082019050919050565b60006020820190508181036000830152611bb081611b74565b9050919050565b7f4e487b7100000000000000000000000000000000000000000000000000000000600052603260045260246000fd5b7f4e465420616c7265616479206d696e7465640000000000000000000000000000600082015250565b6000611c1c601283611150565b9150611c2782611be6565b602082019050919050565b60006020820190508181036000830152611c4b81611c0f565b9050919050565b7f4e6f7420656e6f756768204554482073656e7400000000000000000000000000600082015250565b6000611c88601383611150565b9150611c9382611c52565b602082019050919050565b60006020820190508181036000830152611cb781611c7b565b9050919050565b6000604082019050611cd36000830185611136565b611ce0602083018461178e565b9392505050565b7f43616e6e6f742070726f63657373207a65726f207061796d656e740000000000600082015250565b6000611d1d601b83611150565b9150611d2882611ce7565b602082019050919050565b60006020820190508181036000830152611d4c81611d10565b905091905056fea26469706673582212205089e673edd17e6e926c5c8cab9df09f73fd0886647366808fa99ef9fd00ec8e64736f6c63430008180033",
  "linkReferences": {},
  "deployedLinkReferences": {}
}