{
  "_format": "hh-sol-artifact-1",
  "contractName": "SupplyChain",
  "sourceName": "contracts/SupplGuardApprove.sol",
  "abi": [
    {
      "anonymous": false,
      "inputs": [
        {
          "indexed": false,
          "internalType": "uint256",
          "name": "orderId",
          "type": "uint256"
        }
      ],
      "name": "OrderApproved",
      "type": "event"
    },
    {
      "anonymous": false,
      "inputs": [
        {
          "indexed": false,
          "internalType": "uint256",
          "name": "orderId",
          "type": "uint256"
        },
        {
          "indexed": false,
          "internalType": "address",
          "name": "buyer",
          "type": "address"
        },
        {
          "indexed": false,
          "internalType": "string",
          "name": "productName",
          "type": "string"
        },
        {
          "indexed": false,
          "internalType": "uint256",
          "name": "quantity",
          "type": "uint256"
        },
        {
          "indexed": false,
          "internalType": "uint256",
          "name": "totalPrice",
          "type": "uint256"
        }
      ],
      "name": "OrderPlaced",
      "type": "event"
    },
    {
      "inputs": [
        {
          "internalType": "uint256",
          "name": "productId",
          "type": "uint256"
        },
        {
          "internalType": "string",
          "name": "name",
          "type": "string"
        },
        {
          "internalType": "uint256",
          "name": "price",
          "type": "uint256"
        },
        {
          "internalType": "uint256",
          "name": "quantity",
          "type": "uint256"
        },
        {
          "internalType": "string",
          "name": "imageUrl",
          "type": "string"
        }
      ],
      "name": "addProduct",
      "outputs": [],
      "stateMutability": "nonpayable",
      "type": "function"
    },
    {
      "inputs": [
        {
          "internalType": "uint256",
          "name": "orderId",
          "type": "uint256"
        }
      ],
      "name": "approveOrder",
      "outputs": [],
      "stateMutability": "nonpayable",
      "type": "function"
    },
    {
      "inputs": [
        {
          "internalType": "uint256",
          "name": "",
          "type": "uint256"
        }
      ],
      "name": "orders",
      "outputs": [
        {
          "internalType": "uint256",
          "name": "id",
          "type": "uint256"
        },
        {
          "internalType": "address",
          "name": "buyer",
          "type": "address"
        },
        {
          "internalType": "string",
          "name": "productName",
          "type": "string"
        },
        {
          "internalType": "uint256",
          "name": "quantity",
          "type": "uint256"
        },
        {
          "internalType": "uint256",
          "name": "totalPrice",
          "type": "uint256"
        },
        {
          "internalType": "bool",
          "name": "approved",
          "type": "bool"
        }
      ],
      "stateMutability": "view",
      "type": "function"
    },
    {
      "inputs": [
        {
          "internalType": "uint256",
          "name": "orderId",
          "type": "uint256"
        },
        {
          "internalType": "uint256",
          "name": "productId",
          "type": "uint256"
        },
        {
          "internalType": "uint256",
          "name": "quantity",
          "type": "uint256"
        }
      ],
      "name": "placeOrder",
      "outputs": [],
      "stateMutability": "nonpayable",
      "type": "function"
    },
    {
      "inputs": [
        {
          "internalType": "uint256",
          "name": "",
          "type": "uint256"
        }
      ],
      "name": "products",
      "outputs": [
        {
          "internalType": "uint256",
          "name": "id",
          "type": "uint256"
        },
        {
          "internalType": "string",
          "name": "name",
          "type": "string"
        },
        {
          "internalType": "uint256",
          "name": "price",
          "type": "uint256"
        },
        {
          "internalType": "uint256",
          "name": "quantity",
          "type": "uint256"
        },
        {
          "internalType": "string",
          "name": "imageUrl",
          "type": "string"
        }
      ],
      "stateMutability": "view",
      "type": "function"
    }
  ],
  "bytecode": "0x608060405234801561001057600080fd5b5061132c806100206000396000f3fe608060405234801561001057600080fd5b50600436106100575760003560e01c80630e97cfdf1461005c5780637acc0b2014610078578063a85c38ef146100ac578063bd4b8a04146100e1578063e61cffed146100fd575b600080fd5b61007660048036038101906100719190610866565b610119565b005b610092600480360381019061008d91906108b9565b6103db565b6040516100a3959493929190610985565b60405180910390f35b6100c660048036038101906100c191906108b9565b610521565b6040516100d896959493929190610a42565b60405180910390f35b6100fb60048036038101906100f691906108b9565b610612565b005b61011760048036038101906101129190610bdf565b610737565b005b60008060008481526020019081526020016000206000015403610171576040517f08c379a000000000000000000000000000000000000000000000000000000000815260040161016890610cde565b60405180910390fd5b600080838152602001908152602001600020600301548111156101c9576040517f08c379a00000000000000000000000000000000000000000000000000000000081526004016101c090610d4a565b60405180910390fd5b600081600080858152602001908152602001600020600201546101ec9190610d99565b90506040518060c001604052808581526020013373ffffffffffffffffffffffffffffffffffffffff168152602001600080868152602001908152602001600020600101805461023b90610e0a565b80601f016020809104026020016040519081016040528092919081815260200182805461026790610e0a565b80156102b45780601f10610289576101008083540402835291602001916102b4565b820191906000526020600020905b81548152906001019060200180831161029757829003601f168201915b5050505050815260200183815260200182815260200160001515815250600160008681526020019081526020016000206000820151816000015560208201518160010160006101000a81548173ffffffffffffffffffffffffffffffffffffffff021916908373ffffffffffffffffffffffffffffffffffffffff160217905550604082015181600201908161034a9190610fe7565b50606082015181600301556080820151816004015560a08201518160050160006101000a81548160ff0219169083151502179055509050507f51c59ae689b84c77fee955a4759ad18142b0a92a25233547dd1b0e9e330dcb70843360008087815260200190815260200160002060010185856040516103cd95949392919061113d565b60405180910390a150505050565b600060205280600052604060002060009150905080600001549080600101805461040490610e0a565b80601f016020809104026020016040519081016040528092919081815260200182805461043090610e0a565b801561047d5780601f106104525761010080835404028352916020019161047d565b820191906000526020600020905b81548152906001019060200180831161046057829003601f168201915b50505050509080600201549080600301549080600401805461049e90610e0a565b80601f01602080910402602001604051908101604052809291908181526020018280546104ca90610e0a565b80156105175780601f106104ec57610100808354040283529160200191610517565b820191906000526020600020905b8154815290600101906020018083116104fa57829003601f168201915b5050505050905085565b60016020528060005260406000206000915090508060000154908060010160009054906101000a900473ffffffffffffffffffffffffffffffffffffffff169080600201805461057090610e0a565b80601f016020809104026020016040519081016040528092919081815260200182805461059c90610e0a565b80156105e95780601f106105be576101008083540402835291602001916105e9565b820191906000526020600020905b8154815290600101906020018083116105cc57829003601f168201915b5050505050908060030154908060040154908060050160009054906101000a900460ff16905086565b600060016000838152602001908152602001600020600001540361066b576040517f08c379a0000000000000000000000000000000000000000000000000000000008152600401610662906111e3565b60405180910390fd5b6001600082815260200190815260200160002060050160009054906101000a900460ff16156106cf576040517f08c379a00000000000000000000000000000000000000000000000000000000081526004016106c69061124f565b60405180910390fd5b600180600083815260200190815260200160002060050160006101000a81548160ff0219169083151502179055507fe09badae90eb15bb2cfd6c00928d34ec8edc7f88721fd2608574e8aeb2ab170d8160405161072c919061126f565b60405180910390a150565b6000806000878152602001908152602001600020600001541461078f576040517f08c379a0000000000000000000000000000000000000000000000000000000008152600401610786906112d6565b60405180910390fd5b6040518060a00160405280868152602001858152602001848152602001838152602001828152506000808781526020019081526020016000206000820151816000015560208201518160010190816107e79190610fe7565b50604082015181600201556060820151816003015560808201518160040190816108119190610fe7565b509050505050505050565b6000604051905090565b600080fd5b600080fd5b6000819050919050565b61084381610830565b811461084e57600080fd5b50565b6000813590506108608161083a565b92915050565b60008060006060848603121561087f5761087e610826565b5b600061088d86828701610851565b935050602061089e86828701610851565b92505060406108af86828701610851565b9150509250925092565b6000602082840312156108cf576108ce610826565b5b60006108dd84828501610851565b91505092915050565b6108ef81610830565b82525050565b600081519050919050565b600082825260208201905092915050565b60005b8381101561092f578082015181840152602081019050610914565b60008484015250505050565b6000601f19601f8301169050919050565b6000610957826108f5565b6109618185610900565b9350610971818560208601610911565b61097a8161093b565b840191505092915050565b600060a08201905061099a60008301886108e6565b81810360208301526109ac818761094c565b90506109bb60408301866108e6565b6109c860608301856108e6565b81810360808301526109da818461094c565b90509695505050505050565b600073ffffffffffffffffffffffffffffffffffffffff82169050919050565b6000610a11826109e6565b9050919050565b610a2181610a06565b82525050565b60008115159050919050565b610a3c81610a27565b82525050565b600060c082019050610a5760008301896108e6565b610a646020830188610a18565b8181036040830152610a76818761094c565b9050610a8560608301866108e6565b610a9260808301856108e6565b610a9f60a0830184610a33565b979650505050505050565b600080fd5b600080fd5b7f4e487b7100000000000000000000000000000000000000000000000000000000600052604160045260246000fd5b610aec8261093b565b810181811067ffffffffffffffff82111715610b0b57610b0a610ab4565b5b80604052505050565b6000610b1e61081c565b9050610b2a8282610ae3565b919050565b600067ffffffffffffffff821115610b4a57610b49610ab4565b5b610b538261093b565b9050602081019050919050565b82818337600083830152505050565b6000610b82610b7d84610b2f565b610b14565b905082815260208101848484011115610b9e57610b9d610aaf565b5b610ba9848285610b60565b509392505050565b600082601f830112610bc657610bc5610aaa565b5b8135610bd6848260208601610b6f565b91505092915050565b600080600080600060a08688031215610bfb57610bfa610826565b5b6000610c0988828901610851565b955050602086013567ffffffffffffffff811115610c2a57610c2961082b565b5b610c3688828901610bb1565b9450506040610c4788828901610851565b9350506060610c5888828901610851565b925050608086013567ffffffffffffffff811115610c7957610c7861082b565b5b610c8588828901610bb1565b9150509295509295909350565b7f50726f6475637420646f6573206e6f7420657869737400000000000000000000600082015250565b6000610cc8601683610900565b9150610cd382610c92565b602082019050919050565b60006020820190508181036000830152610cf781610cbb565b9050919050565b7f496e73756666696369656e742070726f64756374207175616e74697479000000600082015250565b6000610d34601d83610900565b9150610d3f82610cfe565b602082019050919050565b60006020820190508181036000830152610d6381610d27565b9050919050565b7f4e487b7100000000000000000000000000000000000000000000000000000000600052601160045260246000fd5b6000610da482610830565b9150610daf83610830565b9250828202610dbd81610830565b91508282048414831517610dd457610dd3610d6a565b5b5092915050565b7f4e487b7100000000000000000000000000000000000000000000000000000000600052602260045260246000fd5b60006002820490506001821680610e2257607f821691505b602082108103610e3557610e34610ddb565b5b50919050565b60008190508160005260206000209050919050565b60006020601f8301049050919050565b600082821b905092915050565b600060088302610e9d7fffffffffffffffffffffffffffffffffffffffffffffffffffffffffffffffff82610e60565b610ea78683610e60565b95508019841693508086168417925050509392505050565b6000819050919050565b6000610ee4610edf610eda84610830565b610ebf565b610830565b9050919050565b6000819050919050565b610efe83610ec9565b610f12610f0a82610eeb565b848454610e6d565b825550505050565b600090565b610f27610f1a565b610f32818484610ef5565b505050565b5b81811015610f5657610f4b600082610f1f565b600181019050610f38565b5050565b601f821115610f9b57610f6c81610e3b565b610f7584610e50565b81016020851015610f84578190505b610f98610f9085610e50565b830182610f37565b50505b505050565b600082821c905092915050565b6000610fbe60001984600802610fa0565b1980831691505092915050565b6000610fd78383610fad565b9150826002028217905092915050565b610ff0826108f5565b67ffffffffffffffff81111561100957611008610ab4565b5b6110138254610e0a565b61101e828285610f5a565b600060209050601f831160018114611051576000841561103f578287015190505b6110498582610fcb565b8655506110b1565b601f19841661105f86610e3b565b60005b8281101561108757848901518255600182019150602085019450602081019050611062565b868310156110a457848901516110a0601f891682610fad565b8355505b6001600288020188555050505b505050505050565b600081546110c681610e0a565b6110d08186610900565b945060018216600081146110eb576001811461110157611134565b60ff198316865281151560200286019350611134565b61110a85610e3b565b60005b8381101561112c5781548189015260018201915060208101905061110d565b808801955050505b50505092915050565b600060a08201905061115260008301886108e6565b61115f6020830187610a18565b818103604083015261117181866110b9565b905061118060608301856108e6565b61118d60808301846108e6565b9695505050505050565b7f4f7264657220646f6573206e6f74206578697374000000000000000000000000600082015250565b60006111cd601483610900565b91506111d882611197565b602082019050919050565b600060208201905081810360008301526111fc816111c0565b9050919050565b7f4f7264657220616c726561647920617070726f76656400000000000000000000600082015250565b6000611239601683610900565b915061124482611203565b602082019050919050565b600060208201905081810360008301526112688161122c565b9050919050565b600060208201905061128460008301846108e6565b92915050565b7f50726f6475637420616c72656164792065786973747300000000000000000000600082015250565b60006112c0601683610900565b91506112cb8261128a565b602082019050919050565b600060208201905081810360008301526112ef816112b3565b905091905056fea26469706673582212204602c0f12007f188e56923d719c8b4cb0bcfcbe2929e1d859a53a46f4cb12f0f64736f6c63430008180033",
  "linkReferences": {},
  "deployedLinkReferences": {}
}