{
  "_format": "hh-sol-artifact-1",
  "contractName": "SupplyGuard",
  "sourceName": "contracts/SupplyGuard.sol",
  "abi": [
    {
      "anonymous": false,
      "inputs": [
        {
          "indexed": false,
          "internalType": "uint256",
          "name": "id",
          "type": "uint256"
        },
        {
          "indexed": false,
          "internalType": "string",
          "name": "title",
          "type": "string"
        },
        {
          "indexed": false,
          "internalType": "uint256",
          "name": "price",
          "type": "uint256"
        }
      ],
      "name": "NFTAdded",
      "type": "event"
    },
    {
      "anonymous": false,
      "inputs": [
        {
          "indexed": false,
          "internalType": "uint256",
          "name": "id",
          "type": "uint256"
        },
        {
          "indexed": false,
          "internalType": "address",
          "name": "owner",
          "type": "address"
        }
      ],
      "name": "NFTMinted",
      "type": "event"
    },
    {
      "inputs": [
        {
          "internalType": "string",
          "name": "title",
          "type": "string"
        },
        {
          "internalType": "string",
          "name": "description",
          "type": "string"
        },
        {
          "internalType": "string",
          "name": "imageUrl",
          "type": "string"
        },
        {
          "internalType": "string",
          "name": "source",
          "type": "string"
        },
        {
          "internalType": "uint256",
          "name": "price",
          "type": "uint256"
        }
      ],
      "name": "addNFT",
      "outputs": [],
      "stateMutability": "nonpayable",
      "type": "function"
    },
    {
      "inputs": [],
      "name": "getAllNFTs",
      "outputs": [
        {
          "components": [
            {
              "internalType": "uint256",
              "name": "id",
              "type": "uint256"
            },
            {
              "internalType": "string",
              "name": "title",
              "type": "string"
            },
            {
              "internalType": "string",
              "name": "description",
              "type": "string"
            },
            {
              "internalType": "string",
              "name": "imageUrl",
              "type": "string"
            },
            {
              "internalType": "string",
              "name": "source",
              "type": "string"
            },
            {
              "internalType": "uint256",
              "name": "price",
              "type": "uint256"
            },
            {
              "internalType": "bool",
              "name": "isMinted",
              "type": "bool"
            }
          ],
          "internalType": "struct SupplyGuard.NFT[]",
          "name": "",
          "type": "tuple[]"
        }
      ],
      "stateMutability": "view",
      "type": "function"
    },
    {
      "inputs": [
        {
          "internalType": "address",
          "name": "user",
          "type": "address"
        }
      ],
      "name": "getMintedNFTsByUser",
      "outputs": [
        {
          "components": [
            {
              "internalType": "uint256",
              "name": "id",
              "type": "uint256"
            },
            {
              "internalType": "string",
              "name": "title",
              "type": "string"
            },
            {
              "internalType": "string",
              "name": "description",
              "type": "string"
            },
            {
              "internalType": "string",
              "name": "imageUrl",
              "type": "string"
            },
            {
              "internalType": "string",
              "name": "source",
              "type": "string"
            },
            {
              "internalType": "uint256",
              "name": "price",
              "type": "uint256"
            },
            {
              "internalType": "bool",
              "name": "isMinted",
              "type": "bool"
            }
          ],
          "internalType": "struct SupplyGuard.NFT[]",
          "name": "",
          "type": "tuple[]"
        }
      ],
      "stateMutability": "view",
      "type": "function"
    },
    {
      "inputs": [],
      "name": "makePayment",
      "outputs": [],
      "stateMutability": "payable",
      "type": "function"
    },
    {
      "inputs": [
        {
          "internalType": "uint256",
          "name": "nftId",
          "type": "uint256"
        }
      ],
      "name": "mintNFT",
      "outputs": [],
      "stateMutability": "payable",
      "type": "function"
    },
    {
      "inputs": [
        {
          "internalType": "uint256",
          "name": "",
          "type": "uint256"
        }
      ],
      "name": "nftOwners",
      "outputs": [
        {
          "internalType": "address",
          "name": "",
          "type": "address"
        }
      ],
      "stateMutability": "view",
      "type": "function"
    },
    {
      "inputs": [
        {
          "internalType": "uint256",
          "name": "",
          "type": "uint256"
        }
      ],
      "name": "nfts",
      "outputs": [
        {
          "internalType": "uint256",
          "name": "id",
          "type": "uint256"
        },
        {
          "internalType": "string",
          "name": "title",
          "type": "string"
        },
        {
          "internalType": "string",
          "name": "description",
          "type": "string"
        },
        {
          "internalType": "string",
          "name": "imageUrl",
          "type": "string"
        },
        {
          "internalType": "string",
          "name": "source",
          "type": "string"
        },
        {
          "internalType": "uint256",
          "name": "price",
          "type": "uint256"
        },
        {
          "internalType": "bool",
          "name": "isMinted",
          "type": "bool"
        }
      ],
      "stateMutability": "view",
      "type": "function"
    },
    {
      "inputs": [
        {
          "internalType": "address payable",
          "name": "recipient",
          "type": "address"
        }
      ],
      "name": "withdraw",
      "outputs": [],
      "stateMutability": "nonpayable",
      "type": "function"
    }
  ],
  "bytecode": "0x60806040526000805534801561001457600080fd5b50611b45806100246000396000f3fe60806040526004361061007b5760003560e01c8063926427441161004e5780639264274414610152578063bbd94c2f1461016e578063d8d79700146101ab578063e0391b09146101b55761007b565b8063265aa621146100805780632fd8ecb8146100c357806351cff8d9146100ec5780637c52882914610115575b600080fd5b34801561008c57600080fd5b506100a760048036038101906100a29190611009565b6101e0565b6040516100ba97969594939291906110f0565b60405180910390f35b3480156100cf57600080fd5b506100ea60048036038101906100e591906112b0565b61044f565b005b3480156100f857600080fd5b50610113600480360381019061010e91906113f9565b610584565b005b34801561012157600080fd5b5061013c60048036038101906101379190611464565b61063d565b604051610149919061166c565b60405180910390f35b61016c60048036038101906101679190611009565b610ad1565b005b34801561017a57600080fd5b5061019560048036038101906101909190611009565b610bd4565b6040516101a2919061169d565b60405180910390f35b6101b3610c07565b005b3480156101c157600080fd5b506101ca610c50565b6040516101d7919061166c565b60405180910390f35b6001602052806000526040600020600091509050806000015490806001018054610209906116e7565b80601f0160208091040260200160405190810160405280929190818152602001828054610235906116e7565b80156102825780601f1061025757610100808354040283529160200191610282565b820191906000526020600020905b81548152906001019060200180831161026557829003601f168201915b505050505090806002018054610297906116e7565b80601f01602080910402602001604051908101604052809291908181526020018280546102c3906116e7565b80156103105780601f106102e557610100808354040283529160200191610310565b820191906000526020600020905b8154815290600101906020018083116102f357829003601f168201915b505050505090806003018054610325906116e7565b80601f0160208091040260200160405190810160405280929190818152602001828054610351906116e7565b801561039e5780601f106103735761010080835404028352916020019161039e565b820191906000526020600020905b81548152906001019060200180831161038157829003601f168201915b5050505050908060040180546103b3906116e7565b80601f01602080910402602001604051908101604052809291908181526020018280546103df906116e7565b801561042c5780601f106104015761010080835404028352916020019161042c565b820191906000526020600020905b81548152906001019060200180831161040f57829003601f168201915b5050505050908060050154908060060160009054906101000a900460ff16905087565b600080600081548092919061046390611747565b9190505590506040518060e0016040528082815260200187815260200186815260200185815260200184815260200183815260200160001515815250600160008381526020019081526020016000206000820151816000015560208201518160010190816104d1919061193b565b5060408201518160020190816104e7919061193b565b5060608201518160030190816104fd919061193b565b506080820151816004019081610513919061193b565b5060a0820151816005015560c08201518160060160006101000a81548160ff0219169083151502179055509050507fbb30b7d5e7538b947de5934d8394b82e2d4888ed02831f393ee53ed40c67724d81878460405161057493929190611a0d565b60405180910390a1505050505050565b600073ffffffffffffffffffffffffffffffffffffffff168173ffffffffffffffffffffffffffffffffffffffff16036105f3576040517f08c379a00000000000000000000000000000000000000000000000000000000081526004016105ea90611a97565b60405180910390fd5b8073ffffffffffffffffffffffffffffffffffffffff166108fc479081150290604051600060405180830381858888f19350505050158015610639573d6000803e3d6000fd5b5050565b60606000805b6000548110156106fc578373ffffffffffffffffffffffffffffffffffffffff166002600083815260200190815260200160002060009054906101000a900473ffffffffffffffffffffffffffffffffffffffff1673ffffffffffffffffffffffffffffffffffffffff161480156106db57506001600082815260200190815260200160002060060160009054906101000a900460ff165b156106ef5781806106eb90611747565b9250505b8080600101915050610643565b5060008167ffffffffffffffff81111561071957610718611185565b5b60405190808252806020026020018201604052801561075257816020015b61073f610f80565b8152602001906001900390816107375790505b5090506000805b600054811015610ac5578573ffffffffffffffffffffffffffffffffffffffff166002600083815260200190815260200160002060009054906101000a900473ffffffffffffffffffffffffffffffffffffffff1673ffffffffffffffffffffffffffffffffffffffff161480156107f157506001600082815260200190815260200160002060060160009054906101000a900460ff165b15610ab857600160008281526020019081526020016000206040518060e00160405290816000820154815260200160018201805461082e906116e7565b80601f016020809104026020016040519081016040528092919081815260200182805461085a906116e7565b80156108a75780601f1061087c576101008083540402835291602001916108a7565b820191906000526020600020905b81548152906001019060200180831161088a57829003601f168201915b505050505081526020016002820180546108c0906116e7565b80601f01602080910402602001604051908101604052809291908181526020018280546108ec906116e7565b80156109395780601f1061090e57610100808354040283529160200191610939565b820191906000526020600020905b81548152906001019060200180831161091c57829003601f168201915b50505050508152602001600382018054610952906116e7565b80601f016020809104026020016040519081016040528092919081815260200182805461097e906116e7565b80156109cb5780601f106109a0576101008083540402835291602001916109cb565b820191906000526020600020905b8154815290600101906020018083116109ae57829003601f168201915b505050505081526020016004820180546109e4906116e7565b80601f0160208091040260200160405190810160405280929190818152602001828054610a10906116e7565b8015610a5d5780601f10610a3257610100808354040283529160200191610a5d565b820191906000526020600020905b815481529060010190602001808311610a4057829003601f168201915b50505050508152602001600582015481526020016006820160009054906101000a900460ff161515151581525050838381518110610a9e57610a9d611ab7565b5b60200260200101819052508180610ab490611747565b9250505b8080600101915050610759565b50819350505050919050565b336002600083815260200190815260200160002060006101000a81548173ffffffffffffffffffffffffffffffffffffffff021916908373ffffffffffffffffffffffffffffffffffffffff160217905550600180600083815260200190815260200160002060060160006101000a81548160ff0219169083151502179055503073ffffffffffffffffffffffffffffffffffffffff166108fc349081150290604051600060405180830381858888f19350505050158015610b97573d6000803e3d6000fd5b507f0176f203df400d7bd5f1b1c9ef36c16709bf3b5d9fd35f000a6bae32393f66c38133604051610bc9929190611ae6565b60405180910390a150565b60026020528060005260406000206000915054906101000a900473ffffffffffffffffffffffffffffffffffffffff1681565b3073ffffffffffffffffffffffffffffffffffffffff166108fc349081150290604051600060405180830381858888f19350505050158015610c4d573d6000803e3d6000fd5b50565b60606000805467ffffffffffffffff811115610c6f57610c6e611185565b5b604051908082528060200260200182016040528015610ca857816020015b610c95610f80565b815260200190600190039081610c8d5790505b50905060005b600054811015610f7857600160008281526020019081526020016000206040518060e001604052908160008201548152602001600182018054610cf0906116e7565b80601f0160208091040260200160405190810160405280929190818152602001828054610d1c906116e7565b8015610d695780601f10610d3e57610100808354040283529160200191610d69565b820191906000526020600020905b815481529060010190602001808311610d4c57829003601f168201915b50505050508152602001600282018054610d82906116e7565b80601f0160208091040260200160405190810160405280929190818152602001828054610dae906116e7565b8015610dfb5780601f10610dd057610100808354040283529160200191610dfb565b820191906000526020600020905b815481529060010190602001808311610dde57829003601f168201915b50505050508152602001600382018054610e14906116e7565b80601f0160208091040260200160405190810160405280929190818152602001828054610e40906116e7565b8015610e8d5780601f10610e6257610100808354040283529160200191610e8d565b820191906000526020600020905b815481529060010190602001808311610e7057829003601f168201915b50505050508152602001600482018054610ea6906116e7565b80601f0160208091040260200160405190810160405280929190818152602001828054610ed2906116e7565b8015610f1f5780601f10610ef457610100808354040283529160200191610f1f565b820191906000526020600020905b815481529060010190602001808311610f0257829003601f168201915b50505050508152602001600582015481526020016006820160009054906101000a900460ff161515151581525050828281518110610f6057610f5f611ab7565b5b60200260200101819052508080600101915050610cae565b508091505090565b6040518060e001604052806000815260200160608152602001606081526020016060815260200160608152602001600081526020016000151581525090565b6000604051905090565b600080fd5b600080fd5b6000819050919050565b610fe681610fd3565b8114610ff157600080fd5b50565b60008135905061100381610fdd565b92915050565b60006020828403121561101f5761101e610fc9565b5b600061102d84828501610ff4565b91505092915050565b61103f81610fd3565b82525050565b600081519050919050565b600082825260208201905092915050565b60005b8381101561107f578082015181840152602081019050611064565b60008484015250505050565b6000601f19601f8301169050919050565b60006110a782611045565b6110b18185611050565b93506110c1818560208601611061565b6110ca8161108b565b840191505092915050565b60008115159050919050565b6110ea816110d5565b82525050565b600060e082019050611105600083018a611036565b8181036020830152611117818961109c565b9050818103604083015261112b818861109c565b9050818103606083015261113f818761109c565b90508181036080830152611153818661109c565b905061116260a0830185611036565b61116f60c08301846110e1565b98975050505050505050565b600080fd5b600080fd5b7f4e487b7100000000000000000000000000000000000000000000000000000000600052604160045260246000fd5b6111bd8261108b565b810181811067ffffffffffffffff821117156111dc576111db611185565b5b80604052505050565b60006111ef610fbf565b90506111fb82826111b4565b919050565b600067ffffffffffffffff82111561121b5761121a611185565b5b6112248261108b565b9050602081019050919050565b82818337600083830152505050565b600061125361124e84611200565b6111e5565b90508281526020810184848401111561126f5761126e611180565b5b61127a848285611231565b509392505050565b600082601f8301126112975761129661117b565b5b81356112a7848260208601611240565b91505092915050565b600080600080600060a086880312156112cc576112cb610fc9565b5b600086013567ffffffffffffffff8111156112ea576112e9610fce565b5b6112f688828901611282565b955050602086013567ffffffffffffffff81111561131757611316610fce565b5b61132388828901611282565b945050604086013567ffffffffffffffff81111561134457611343610fce565b5b61135088828901611282565b935050606086013567ffffffffffffffff81111561137157611370610fce565b5b61137d88828901611282565b925050608061138e88828901610ff4565b9150509295509295909350565b600073ffffffffffffffffffffffffffffffffffffffff82169050919050565b60006113c68261139b565b9050919050565b6113d6816113bb565b81146113e157600080fd5b50565b6000813590506113f3816113cd565b92915050565b60006020828403121561140f5761140e610fc9565b5b600061141d848285016113e4565b91505092915050565b60006114318261139b565b9050919050565b61144181611426565b811461144c57600080fd5b50565b60008135905061145e81611438565b92915050565b60006020828403121561147a57611479610fc9565b5b60006114888482850161144f565b91505092915050565b600081519050919050565b600082825260208201905092915050565b6000819050602082019050919050565b6114c681610fd3565b82525050565b600082825260208201905092915050565b60006114e882611045565b6114f281856114cc565b9350611502818560208601611061565b61150b8161108b565b840191505092915050565b61151f816110d5565b82525050565b600060e08301600083015161153d60008601826114bd565b506020830151848203602086015261155582826114dd565b9150506040830151848203604086015261156f82826114dd565b9150506060830151848203606086015261158982826114dd565b915050608083015184820360808601526115a382826114dd565b91505060a08301516115b860a08601826114bd565b5060c08301516115cb60c0860182611516565b508091505092915050565b60006115e28383611525565b905092915050565b6000602082019050919050565b600061160282611491565b61160c818561149c565b93508360208202850161161e856114ad565b8060005b8581101561165a578484038952815161163b85826115d6565b9450611646836115ea565b925060208a01995050600181019050611622565b50829750879550505050505092915050565b6000602082019050818103600083015261168681846115f7565b905092915050565b61169781611426565b82525050565b60006020820190506116b2600083018461168e565b92915050565b7f4e487b7100000000000000000000000000000000000000000000000000000000600052602260045260246000fd5b600060028204905060018216806116ff57607f821691505b602082108103611712576117116116b8565b5b50919050565b7f4e487b7100000000000000000000000000000000000000000000000000000000600052601160045260246000fd5b600061175282610fd3565b91507fffffffffffffffffffffffffffffffffffffffffffffffffffffffffffffffff820361178457611783611718565b5b600182019050919050565b60008190508160005260206000209050919050565b60006020601f8301049050919050565b600082821b905092915050565b6000600883026117f17fffffffffffffffffffffffffffffffffffffffffffffffffffffffffffffffff826117b4565b6117fb86836117b4565b95508019841693508086168417925050509392505050565b6000819050919050565b600061183861183361182e84610fd3565b611813565b610fd3565b9050919050565b6000819050919050565b6118528361181d565b61186661185e8261183f565b8484546117c1565b825550505050565b600090565b61187b61186e565b611886818484611849565b505050565b5b818110156118aa5761189f600082611873565b60018101905061188c565b5050565b601f8211156118ef576118c08161178f565b6118c9846117a4565b810160208510156118d8578190505b6118ec6118e4856117a4565b83018261188b565b50505b505050565b600082821c905092915050565b6000611912600019846008026118f4565b1980831691505092915050565b600061192b8383611901565b9150826002028217905092915050565b61194482611045565b67ffffffffffffffff81111561195d5761195c611185565b5b61196782546116e7565b6119728282856118ae565b600060209050601f8311600181146119a55760008415611993578287015190505b61199d858261191f565b865550611a05565b601f1984166119b38661178f565b60005b828110156119db578489015182556001820191506020850194506020810190506119b6565b868310156119f857848901516119f4601f891682611901565b8355505b6001600288020188555050505b505050505050565b6000606082019050611a226000830186611036565b8181036020830152611a34818561109c565b9050611a436040830184611036565b949350505050565b7f496e76616c696420616464726573730000000000000000000000000000000000600082015250565b6000611a81600f83611050565b9150611a8c82611a4b565b602082019050919050565b60006020820190508181036000830152611ab081611a74565b9050919050565b7f4e487b7100000000000000000000000000000000000000000000000000000000600052603260045260246000fd5b6000604082019050611afb6000830185611036565b611b08602083018461168e565b939250505056fea264697066735822122072be69aad17d8c64d550cce94e77e64ce7c1cc257a82d83e127e4f91fad3c1e564736f6c63430008180033",
  "linkReferences": {},
  "deployedLinkReferences": {}
}